:060000000A128A110C280F
:10000800FE00030EF0000A08F1000A128A154F2EAE
:100018000A128A110F280A128A11FF270A128A1156
:10002800FB008313A0308400D2300A128A15002600
:100038000A128A115330840061300A128A15002688
:100048000A128A11FA0183010A128A11FA29831203
:1000580003132D088039B7002D08AE002E07BE0007
:10006800AC1F3728382839283E143E0803193D2884
:100078003E284E283E0A031D422843284B280030BC
:10008800AD000030AC000030AB000030AA00AC1767
:10009800AD0156280030AD000030AC000030AB0098
:1000A8000030AA0029088039FF007F08B706290810
:1000B800AE002E07BF00A81F6228632864283F14DB
:1000C8003F0803196828692879283F0A031D6D2805
:1000D8006E2876280030A9000030A8000030A7005C
:1000E8000030A600A817A90181280030A900003017
:1000F800A8000030A7000030A6002908280427041B
:100108002604031D88288928A2280030AD00003065
:10011800AC000030AB000030AA008030AC047F3067
:10012800AD043708FF007F08AD042D08A9002C088E
:10013800A8002B08A7002A08A600F9293E08031DD5
:10014800A628A728B0280030A9000030A800003051
:10015800A7000030A600F9293E08AE00AF012F081D
:10016800B1003F082E02B000031CB10330087F3EE7
:10017800B80031080318013E003EB9002D08B6004A
:100188002C08B5002B08B4002A08B3000030AD00D5
:100198000030AC000030AB000030AA000030BD00D9
:1001A8000030BC000030BB000030BA00BF01262977
:1001B8003F080319E028E12801290130AE000310A7
:1001C800B30DB40DB50DB60DAE0BE3280130AE007E
:1001D8000310AA0DAB0DAC0DAD0DAE0BEC28BD1F79
:1001E800F628F728F8282A140130AE000310BA0DB3
:1001F800BB0DBC0DBD0DAE0BFA2829083602031D38
:100208000F2928083502031D0F2927083402031D6A
:100218000F2926083302031C1229132922293D1706
:100228002608B3022708031C270FB4022808031C5A
:10023800280FB5022908031C290FB6020130FF0058
:100248007F08BF071A303F02031C2B292C29DC2802
:10025800360835043404330403193329342953295F
:100268003A1453290130AE000310AA0DAB0DAC0DA2
:10027800AD0DAE0B3829BD1F4229432944292A1444
:100288000130AE000310BA0DBB0DBC0DBD0DAE0B99
:100298004629FF30B8070318B90AFF30B907AC1F61
:1002A800562957293629BF01BD1F5B295C297829A2
:1002B800FF303A05AE00FF303B05AF00FF303C058C
:1002C800B0007F303D05B100310830042F042E0402
:1002D80003196F2970297329BF01BF0A78292A1CBD
:1002E80076297729782970293F0803197C297D29DF
:1002F800AE290130AA07003003180130AB070030DF
:1003080003180130AC07003003180130AD072D1C6D
:100318008E298F29AE292A08AE002B08AF002C0899
:10032800B0002D08B1000130B200310DB10CB00C95
:10033800AF0CAE0CB20B99293108AD003008AC00F7
:100348002F08AB002E08AA000130B8070318B90A15
:100358000030B9073908803AFF0080307F02031D5A
:10036800B729FF303802031CBA29BB29C929FF3035
:1003780083120313B8000030B9000030AD0000301C
:10038800AC000030AB000030AA0083120313390818
:10039800803AFF0080307F02031DD42901303802E3
:1003A8000318D729D829E52983120313B801B901FD
:1003B8000030AD000030AC000030AB000030AA00C7
:1003C800B701831203133808BE003E1CEC29ED293F
:1003D800EF29AC17F3297F30FF007F08AC053E08F2
:1003E800AE0003102E0CAD00952808000A128A15DD
:1003F8007D260A128A110A128A15D6250A128A112E
:100408000A128A11F2270A128A110A128A15D325AA
:100418000A128A110A128A1520260A128A110A1249
:100428008A15F9250A128A118316031305140A126C
:100438008A153D260A128A11831603138712081398
:100448008812831203130813881687160A128A154E
:1004580008260A128A11013083120313D3070318DE
:10046800D40A0030D407033053065404031D3D2A30
:100478003E2A7A2AD301D4014030880620308806E3
:100488000A128A1556270A128A11831203132108A1
:10049800DC002008DB0000305C021A3003195B0224
:1004A800031C572A582A612A0030A800A9000A12FA
:1004B8008A115F270A128A117A2A5C08D1005B0820
:1004C800D0000310D00DD10D3230D20050085202A6
:1004D800D90051090318013EDA005A08A900590841
:1004E800A8000A128A115F270A128A110A128A11B1
:1004F800AB230A128A11831203134B08D8004A0847
:10050800D7000A128A1151240A128A11831203137E
:100518004B08D6004A08D5000030580207300319A6
:1005280057020318982A992AAF2A5708580403191A
:100538009E2A9F2AAF2A66307B06031DA42AA52A75
:10054800AA2A0A128A15F9250A128A118312031394
:10055800DE01DE0AB02ADE01003056020730031938
:1005680055020318B82AB92ACF2A55085604031980
:10057800BE2ABF2ACF2A62307B06031DC42AC52A99
:10058800CA2A0A128A15F9250A128A118312031334
:10059800DF01DF0AD02ADF010A128A1180260A1237
:1005A8008A110A128A1529270A128A111A307A0220
:1005B800031CDF2AE02AE42A8312031387122F2A56
:1005C8001A307A020318E92AEA2A2F2A8312031317
:1005D80087162F2A0A128A110C2883120313A000E7
:1005E80020080319F82AF92A0D2BF51FFC2AFD2AE1
:1005F8000D2B7209A2007309A3007409A4007509E0
:10060800A500A20A0319A30A0319A40A0319A50A33
:10061800152B7508A5007408A4007308A3007208B8
:10062800A2007508740473047204031D1C2B1D2B8F
:10063800262B0030F5000030F4000030F3000030C5
:10064800F200AA2B9630A100362B0130FF007F085C
:10065800A10701300310A50CA40CA30CA20CFF3EAB
:10066800031D2E2BFE302505031D3B2B3C2B292B70
:10067800582B0130FF007F08A1070130A207003086
:1006880003180130A307003003180130A407003015
:1006980003180130A50701300310A50CA40CA30C06
:1006A800A20CFF3E031D502BFF302505031D5D2BBB
:1006B8005E2B3D2B6A2B0130A1020130F60003109E
:1006C800A20DA30DA40DA50DF60B632BA41B6D2B7A
:1006D8006E2B742B023021020318732B742B5F2BA3
:1006E8002118772B782B802BFF30A205FF30A3052C
:1006F8007F30A405FF30A5050310A10C2108F600E2
:10070800F701F801F90118300310F60DF70DF80D8F
:10071800F90DFF3E031D882B7608A2047708A30471
:100728007808A4047908A504200803199C2B9D2B9C
:10073800A22BF51FA02BA12BA22BA5172508F5008E
:100748002408F4002308F3002208F20008002C30E3
:1007580083120313CE000130CF00CC01CD01061661
:100768000A30F2000030F3000A128A1565260A12D0
:100778008A11831203130612CA2B0130F2000030CB
:10078800F3000A128A1565260A128A1183120313C6
:10079800861ACF2BD02BDE2B0130CE020030031C63
:1007A800CF03CF024E0A031DDD2B4F0A031DDD2B9D
:1007B800DE2BC12B4E084F04031DE32BE42BE92B42
:1007C800FF30CA00FF30CB00502C3030CE007530DF
:1007D800CF00FF2B0130F2000030F3000A128A1517
:1007E80065260A128A11013083120313CC070318F5
:1007F800CD0A0030CD07861E022C032C112C0130A7
:10080800CE020030031CCF03CF024E0A031D102C6A
:100818004F0A031D102C112CEE2B4E084F04031DFC
:10082800162C172C182CE42B4C08F2004D08F3005A
:10083800F401F50100300A128A11F1220A128A1114
:10084800750883120313AD007408AC007308AB007D
:100858007208AA004030A900B930A8009930A70052
:100868009A30A6000A128A112B200A128A118312C2
:1008780003132908C3002808C2002708C100260856
:10088800C0000A128A1108260A128A118312031359
:100898004108CB004008CA0008002C30831203131B
:1008A800CE000130CF00CC01CD0106170A30F2008E
:1008B8000030F3000A128A1565260A128A1183127B
:1008C80003130613702C0130F2000030F3000A12F3
:1008D8008A1565260A128A1183120313861B752C42
:1008E800762C842C0130CE020030031CCF03CF02BB
:1008F8004E0A031D832C4F0A031D832C842C672C5E
:100908003030CE007530CF009A2C0130F200003024
:10091800F3000A128A1565260A128A110130831219
:100928000313CC070318CD0A0030CD07861F9D2C72
:100938009E2CAC2C0130CE020030031CCF03CF021A
:100948004E0A031DAB2C4F0A031DAB2CAC2C892C73
:100958004E084F04031DB12CB22CB72CFF30CA002F
:10096800FF30CB00EF2C4C08F2004D08F300F401E7
:10097800F50100300A128A11F1220A128A1175084B
:1009880083120313AD007408AC007308AB0072083F
:10099800AA004030A900B930A8009930A7009A30C1
:1009A800A6000A128A112B200A128A118312031335
:1009B8002908C3002808C2002708C1002608C0006B
:1009C8000A128A1108260A128A118312031341088F
:1009D800CB004008CA00080083120313AF01A81F08
:1009E800F62CF72C042DA509A609A709A809A50A1C
:1009F8000319A60A0319A70A0319A80AAF01AF0A1F
:100A0800AC1F072D082D172DA909AA09AB09AC0998
:100A1800A90A0319AA0A0319AB0A0319AC0A013077
:100A2800FF007F08AF060030B3000030B20000308E
:100A3800B1000030B0002808270426042504031953
:100A4800262D272D742DAE01AE0A372D0130AD00AD
:100A58000310A50DA60DA70DA80DAD0B2C2D01306B
:100A6800FF007F08AE07A81F3A2D3B2D2A2D013025
:100A7800AD000310B00DB10DB20DB30DAD0B3D2D92
:100A880028082C02031D522D27082B02031D522D66
:100A980026082A02031D522D25082902031C552D5C
:100AA800562D652D2508A9022608031C260FAA0223
:100AB8002708031C270FAB022808031C280FAC02C9
:100AC800301401300310A80CA70CA60CA50CFF3E8F
:100AD800031D662D0130AE02031D732D742D3B2DB1
:100AE8002F080319782D792D842DB009B109B20981
:100AF800B309B00A0319B10A0319B20A0319B30AF0
:100B08003308A8003208A7003108A6003008A5005D
:100B18000800E830F4000330F500831603131208C8
:100B280083120313B600B701B60EB70EF030B7053F
:100B380036080F39B704F030B6053608103EF20013
:100B480037080318013E003EF3000A128A15B4263E
:100B58000A128A11720883120313A5007308A600EB
:100B68000030A61BFF30A700A8003408F2003508A3
:100B7800F300F401F5010030F9000F30F8004230BD
:100B8800F7004030F6000A128A11AA270A128A11C1
:100B9800750883120313AC007408AB007308AA002D
:100BA8007208A9000A128A11F0240A128A11831203
:100BB80003132608BA002508B9003A08B70039080F
:100BC800B6000310B70CB60C0310B70CB60C3608F9
:100BD80095003A08B7003908B6000310B70CB60CF0
:100BE80036080139B800B80EB80D17083806DF39CD
:100BF8003806970039080139B600B60E17083606C8
:100C0800EF39360697000800031083120313420DCC
:100C1800430DC9004908031D122E132E1C2E003047
:100C2800C3000030C2000030C1000030C0007F2E79
:100C38004008C4004108C5004208C6004308C70070
:100C48001F300310C70CC60CC50CC40CFF3E031D97
:100C5800252E4408C800C217FF30C005FF30C10563
:100C6800FF30C2050030C3059630C902C91F3D2EAA
:100C78003E2E582E4908803A973E0318442E452E9A
:100C8800462E132E01300310C30CC20CC10CC00C2D
:100C9800FF3E031D472E0130FF007F08C907031DD3
:100CA800562E572E462E6F2E20304902031C5D2EDD
:100CB8005E2E6A2E132E0130C4000310C00DC10D24
:100CC800C20DC30DC40B612E0130C9024908031DB2
:100CD8006E2E6F2E5F2E48080319732E742E7F2EEA
:100CE800C009C109C209C309C00A0319C10A031905
:100CF800C20A0319C30A08000A128A152D260A1205
:100D08008A1183120313E00046306006031D8D2EFE
:100D18008E2E9A2E5E08031D922E932E9A2E6630E2
:100D2800FB000A128A15E4250A128A11423083123E
:100D380003136006031DA12EA22EAE2E5F08031D0D
:100D4800A62EA72EAE2E6230FB000A128A15DD25CC
:100D58000A128A115230831203136006031DB52E3E
:100D6800B62EBD2E7230FB000A128A15F2250A1221
:100D78008A114C30831203136006031DC42EC52E3E
:100D8800CC2E6C30FB000A128A15EB250A128A1148
:100D98005330831203136006031DD32ED42EDB2E8B
:100DA8007330FB000A128A15F9250A128A114D3090
:100DB800831203136006031DE22EE32EE82E0A12A7
:100DC8008A1514260A128A116D30831203136006DD
:100DD800031DEF2EF02EF52E0A128A1508260A1288
:100DE8008A11080083120313A501A11FFC2EFD2EF2
:100DF800042FA009A109A00A0319A10AA501A50A9F
:100E0800A31F072F082F112FA209A309A20A03194C
:100E1800A30A0130FF007F08A506A601A701200844
:100E280021040319182F192F502FA401A40A272FC2
:100E380001300310A00DA10DFF3E031D1D2F013031
:100E4800FF007F08A407A11F2A2F2B2F1C2F01307A
:100E58000310A60DA70DFF3E031D2C2F210823020A
:100E6800031D382F20082202031C3B2F3C2F432F41
:100E78002008A2022108031CA303A30226140130A0
:100E88000310A10CA00CFF3E031D442F0130A40247
:100E9800031D4F2F502F2B2F25080319542F552F83
:100EA8005A2FA609A709A60A0319A70A2708A10005
:100EB8002608A0000800831203132908803AFF00BF
:100EC80080307F02031D6A2F65302802031C6D2FB6
:100ED8006E2F742F643083120313A8000030A9000A
:100EE80083120313A91F792F7A2F7C2F8710A92F1C
:100EF8006430A0000030A1002908F3002808F2009F
:100F0800FF30F4000030F5000A128A15B4260A12E0
:100F18008A11730883120313A3007208A2000A122D
:100F28008A11F6260A128A11831203132108AB00CC
:100F38002008AA002A089B002A080339F800F80D9F
:100F48001D087806FD3978069D00080000308312D8
:100F58000313A4000030A3000030A2000030A10059
:100F6800721CB72FB82FCF2F7608A1077708031167
:100F78000318013E0319C12FA207780803110318AB
:100F8800013E0319C82FA307790803110318013E6E
:100F98000319CF2FA4070130A0000310F60DF70D99
:100FA800F80DF90DA00BD12F01300310F50CF40C3E
:100FB800F30CF20CFF3E031DD92F7508740473045B
:100FC8007204031DE82FE92FB42F2408F500230825
:100FD800F4002208F3002108F20008000630831606
:100FE80003139F000612861606138617831203132F
:080FF800061206130800733411
:101BA6008B170B17080083160313061086100611F1
:101BB6008611080083120313061086140611861573
:101BC60008008312031306148610061586110800F2
:101BD6008312031306108614061586110800831255
:101BE60003130614861006118615080083120313C4
:101BF6000610861006118611080064008001840A0A
:101C06000406031900340406012E0630831203135A
:101C1600B4000030B5000A128A118D250A128A1501
:101C26000800033083120313B4000030B5000A1213
:101C36008A118D250A128A150800831603130711C7
:101C4600F930920007308312031392000C3097008C
:101C56009501080083120313981C322E332E352E5D
:101C6600181218168C1A382E392E3B2EFF303C2EA1
:101C76001A0808008316031387100430831203130F
:101C86009000F93083160313920083120313101485
:101C96000C309D0095010800031083120313061CE7
:101CA60003140318572E5B2E8312031306145E2E9D
:101CB60083120313061071088A00700E8300FE0E4D
:101CC6007E0E0900F401F501722E000000000000EE
:101CD60000000130F4070318F50A0030F507730811
:101CE6007502031D782E72087402031C7B2E7C2E4F
:101CF600682E0800831603130713871719309900F7
:101D060018151812831203139817831603139816BF
:101D1600831203131816831603131813831203135F
:101D260018130800831603130710831203130710F2
:101D36001230F2000030F3000A128A1500270A1248
:101D46008A158312031307141430F2000030F300CF
:101D56000A128A1565260A128A15831603130714B2
:101D66000800F601F701721CB92EBA2EC02E7408AF
:101D7600F6070318F70A7508F70701300310F40D84
:101D8600F50DFF3E031DC12E01300310F30CF20CBE
:101D9600FF3E031DC82E72087304031DD32ED42ED6
:101DA600B62E7708F3007608F2000800F601283010
:101DB600F2000030F3000A128A1565260A128A1507
:101DC600831203130718E82EE92EFA2E5030F2007C
:101DD6000030F3000A128A1565260A128A15831244
:101DE6000313071CF72EF82EFA2EF601F60A07182B
:101DF600FD2EFE2EFA2E76080800F401F5011E2FA0
:101E0600F601F70100000000000000000130F607AF
:101E16000318F70A0030F70703307702E830031992
:101E26007602031C172F182F052F0130F40703180D
:101E3600F50A0030F50773087502031D242F720892
:101E46007402031C272F282F032F08000A128A1555
:101E560095260A128A150A128A15D9260A128A1591
:101E6600003A0319372F382F552F0A128A1586275D
:101E76000A128A1583120313DD000A128A158627B1
:101E86000A128A150A128A1586270A128A15FA0074
:101E96000A128A1586270A128A150A128A158627B1
:101EA6000A128A150800C030831603139F00853076
:101EB600831203139F001F19612F622F5E2F1E08C6
:101EC600A300831603131E0883120313A200033014
:101ED600F2000030F3002308F5002208F4000A128D
:101EE6008A15BC270A128A157208FF3E831203134D
:101EF600A20073080318013EFF3EA3002308A100B9
:101F06002208A0000800F701F80183120313071C3A
:101F16008D2F8E2F882F1E30F2000030F3000A120C
:101F26008A1565260A128A1583120313071C9C2F2D
:101F36009D2FAC2F0130F6007808073C013EA52FF7
:101F46000310F60DFF3E031DA32F7608FF007F0842
:101F5600F7040718AF2FB02FAC2F0130FF007F0812
:101F6600F80708307802031CB92FBA2F882F770894
:101F76000800F601F701720873040319C32FC42F72
:101F8600FB2FF801F80AD22F01300310F20DF30DE2
:101F9600FF3E031DC82F0130FF007F08F807F31F1F
:101FA600D52FD62FC72F01300310F60DF70DFF3EA4
:101FB600031DD72F73087502031DE32F72087402E1
:101FC600031CE62FE72FEE2F7208F4027308031C9A
:101FD600F503F502761401300310F30CF20CFF3E04
:101FE600031DEF2F0130F802031DFA2FFB2FD62F0A
:0A1FF6007708F3007608F2000800F7
:02400E00313F40
:00000001FF
